:020000040800F2
:10000000200B0020890100088116000879160008DD
:100010007D16000881030008951800080000000004
:100020000000000000000000000000008918000827
:100030008503000800000000851600088D180008E0
:10004000A3010008A3010008A3010008A301000800
:10005000A3010008A3010008A3010008A3010008F0
:10006000A3010008A3010008A3010008A3010008E0
:10007000A3010008A3010008A3010008A3010008D0
:10008000A3010008A3010008A3010008A3010008C0
:10009000A3010008A3010008A3010008A3010008B0
:1000A000A3010008A3010008A3010008A3010008A0
:1000B000A3010008A3010008A3010008A301000890
:1000C000A3010008A3010008A3010008A301000880
:1000D000A3010008A3010008A3010008A301000870
:1000E000A3010008A3010008A301000800F002F822
:1000F00000F03AF80AA090E8000C82448344AAF188
:100100000107DA4501D100F02FF8AFF2090EBAE885
:100110000F0013F0010F18BFFB1A43F0010318473B
:100120000027000020270000103A24BF78C878C1BB
:10013000FAD8520724BF30C830C144BF04680C60ED
:10014000704700000023002400250026103A28BF35
:1001500078C1FBD8520728BF30C148BF0B60704739
:100160001FB51FBD10B510BD00F0CFF81146FFF749
:10017000F7FF01F091FB00F0EDF803B4FFF7F2FF99
:1001800003BC00F0F5F80000094880470948004723
:10019000FEE7FEE7FEE7FEE7FEE7FEE7FEE7FEE737
:1001A000FEE7FEE704480549054A064B7047000094
:1001B00091180008ED00000820050020200B002009
:1001C0002007002020070020032A40F2308010F092
:1001D000030C00F0158011F8013BBCF1020F6244E2
:1001E00098BF11F801CB00F8013B38BF11F8013B73
:1001F000A2F1040298BF00F801CB38BF00F8013B20
:1002000011F0030300F04F80083AC0F0088051F865
:10021000043B083A51F804CBA0E80810F5E7121D9A
:100220005CBF51F8043B40F8043BAFF30080D207B9
:1002300024BF11F8013B11F801CB48BF11F8012B85
:1002400024BF00F8013B00F801CB48BF00F8012BA8
:1002500070474FF0000200B5134694469646203989
:1002600022BFA0E80C50A0E80C50B1F12001BFF46F
:10027000F7AF090728BFA0E80C5048BF0CC05DF8D5
:1002800004EB890028BF40F8042B08BF704748BF23
:1002900020F8022B11F0804F18BF00F8012B704797
:1002A00070477047704710B5203AC0F00B80B1E836
:1002B0001850A0E81850B1E81850A0E81850203A9B
:1002C000BFF4F5AF5FEA027C24BFB1E81850A0E8A4
:1002D000185044BF18C918C0BDE810405FEA827CBE
:1002E00024BF51F8043B40F8043B08BF7047D207D5
:1002F00028BF31F8023B48BF11F8012B28BF20F876
:10030000023B48BF00F8012B7047754600F02CF8FF
:10031000AE4605006946534620F00700854618B0F2
:1003200020B5FFF73FFFBDE820404FF000064FF03B
:1003300000074FF000084FF0000BAC46ACE8C009D6
:10034000ACE8C009ACE8C009ACE8C00921F007017D
:100350008D46704710B50446AFF300802046BDE8D7
:100360001040FFF70ABF0000004870471800002047
:1003700001491820ABBEFEE72600020070470000CE
:10038000FEE7000070470000B0B5044600F024F915
:10039000054640F20000C2F200000078611C18BF60
:1003A000044400BF00F018F9401BA042FAD3B0BDCE
:1003B0002DE9F04F82B00E68002E00F0038140F26C
:1003C0000C4C41F200424FF6FF7EC4F2010CC4F225
:1003D0000102042700240123C1F2100E4FF0000A8D
:1003E0004FF00009904208BF0327009745E000BF87
:1003F000012704F00C030F229A402BEA020207FAAD
:1004000003F34FEA9A051A4346F82520D1F804B0C1
:1004100040F20045C4F201055FEACB322A6854BFBE
:1004200022EA080242EA08022A606A685FEA8B331D
:1004300054BF22EA080242EA08026A605FEACB235C
:10044000AA6854BF22EA080242EA08025FEA8B2344
:10045000AA60DCF800204FF0010354BF22EA080232
:1004600042EA0802CCF800200E680AF1010A36FAC6
:100470000AF204F1040400F0A58003FA0AF816EA6F
:10048000080FF1D04E68764512DC122E56D8DFE800
:1004900006F0350B45495555555555555555555546
:1004A0005555554D510000BFD1F80C9046E000BFA6
:1004B0004FF6FF72C1F2210296420FDC0022C1F218
:1004C000110296421AD00022C1F21202964215D0B1
:1004D0000022C1F22102964210D02FE00022C1F288
:1004E000220296420AD00022C1F23102964205D081
:1004F0000022C1F23202964220D100BF8A684AB17E
:10050000012A14BFC0F81480C0F810804FF0080909
:1005100014E000BF4FF0040910E000BFCA6802F108
:1005200008090BE04FF0000908E000BFCA6802F1BB
:10053000040903E0CA6802F10C0900BF224606461E
:10054000BAF1080F24BF203A043637680F259540CA
:1005500027EA050509FA02F22A433260CA79D2066F
:100560007FF582AF41F21803C4F202031A6842F029
:1005700001021A601A6802F001020192019A40F227
:100580000042C4F20102A2F57E762AF0030256F878
:1005900002B040F60002C4F20102904210D040F6D0
:1005A0000042C4F2010290423FF422AF41F2000245
:1005B000C4F20102009F904208BF022719E700BF62
:1005C000002716E702B0BDE8F08F0000002A08BF40
:1005D000090401617047000040F21C50C2F20000A3
:1005E0000068704770B5B8B3044690F83D0028B96C
:1005F000002084F83C00204600F0ECFA242084F827
:100600003D002068016821F001010160016841F4AA
:1006100000410160016821F40041016000F090FC9C
:1006200048F28041C0F21E0140F60013D4F804E005
:1006300088424FF00001C0F23D0348F2A16C4FF038
:10064000000238BF01219842C0F2010C38BF0122DC
:10065000E64538BF0A460AB1012070BD4DF68361F8
:10066000C4F21B31A0FB01122168950C4B684FF4BA
:10067000967623F03F0343EA9243754344F6D356FC
:100680004B60C1F262060B6AA5FB0656B50923F062
:100690003F03E64538BF950C6A1C1A430A62CA69D3
:1006A00048F2A0664CF6FF73C0F20106B64522EA96
:1006B00003020BD801384FEA4E03B0FBF3F00130D0
:1006C0006FF31F30042898BF04201EE0A368013890
:1006D00063B119230EFB03F3B0FBF3F001306FF3AA
:1006E0001F3078B100F5804008E000BF0EEB4E03EC
:1006F000B0FBF3F001306FF31F3028B100F500407C
:1007000003E000BF012000E001201043C861086839
:10071000D4E9072320F0C00010431843086088681C
:1007200048F2FF3204F10C0690434CCE18431043BC
:10073000A5698860C86820F0FF0030432843C8607E
:10074000086840F00100086000202021206484F83F
:100750003D10206384F83E0070BD00002DE9F04399
:1007600081B01F46164688460446FFF735FF94F8C9
:100770003D10202920D1054620688169890717D5B9
:10078000FFF72AFF401B1928F6D9002020212063FB
:1007900084F83D1084F83E00216C022641F02001CF
:1007A000216484F83C00304601B0BDE8F08300BF0E
:1007B00094F83C10012905D10226304601B0BDE86D
:1007C000F08300BF012184F83C100168C90703D100
:1007D000016841F001010160016821F400610160DC
:1007E000212184F83D10102184F83E10002121645D
:1007F00066626785618D21850021CFF6FF71E16218
:10080000E16A11F5803F18BF012919D1016841F44F
:10081000807101604169DDF82090C90723D119F189
:10082000010116D0B9F1000F46D000BFFFF7D4FE8A
:10083000401B484542D820684169C907F6D012E0FC
:100840000829E3D0216B1229E0D0E3E74169C90709
:1008500009D14169C90706D14169C90704BF416986
:100860005FEAC171F2D02169B1F5804F02D1FE215A
:1008700061E000BF062101EAD811F0310161416950
:10088000090757D4416919F1010201F480612FD0A1
:10089000002946D1B9F1000F00F04281FFF79CFE1C
:1008A000401B484500F23E8120684169090741D458
:1008B00041694905F2D534E0FFF78EFE0020202182
:1008C000206384F83D1084F83E00216C012641F03D
:1008D00020012164216884F83C000868C00544BFF9
:1008E0004FF400702064304601B0BDE8F08300BFD3
:1008F000B9B9416909071DD44169490511D4416954
:10090000090717D4416949050BD44169090711D476
:100910004169490505D4416909070BD44169490575
:10092000E7D5016841F4007101606FF480614161B5
:100930000420F8E0FF2101EA08010161416989070B
:100940003AD4416919F1010201F4806112D051BB1E
:10095000B9F1000F00F0E080FFF73EFE401B484574
:1009600000F2DC8020684169890725D44169490586
:10097000F2D518E0B9B9416989071DD44169490523
:1009800011D44169890717D4416949050BD44169DC
:10099000890711D44169490505D4416989070BD4F8
:1009A00041694905E7D5016841F4007101606FF4C0
:1009B000806141610420B6E0002600964169009103
:1009C000816900910099218D002900F0958009F13D
:1009D0000108014651F8142F120635D4B8F1000F62
:1009E00016D0B9F1000F00F0AF8000BF08684005D5
:1009F00000F1B280FFF7F0FD401B484500F2A980EE
:100A00002068014651F8142F1206EFD51CE000BFF4
:100A10000A68520500F1A0800A68120614D40A6818
:100A2000520500F199800A6812060DD40A68520531
:100A300000F192800A68120606D40A68520500F195
:100A40008B800A681206E3D5636A194611F8012BF8
:100A500002616162618D01396185278D0146A7F1CF
:100A6000010CA4F828C051F8142F52070DD55FEAE5
:100A70000C420AD05A78A7F1020C02619A1C6262F9
:100A8000628D013A6285A4F828C00A6852072FD403
:100A9000B8F1000F14D0B9F1000F7BD00868400501
:100AA00000F18080FFF798FD401B484577D820680B
:100AB000014651F8142F5207F0D5B4F828C017E0BA
:100AC0000A6852056ED40A68520711D40A685205A2
:100AD00068D40A6852070BD40A68520562D40A68BF
:100AE000520705D40A6852055CD40A685207E7D554
:100AF0005FEA0C417FF46DAF016841F40071016061
:100B0000202084F83D0084F83E6084F83C60304644
:100B100001B0BDE8F08300BFFFF75EFD202002E0DA
:100B2000FFF75AFD202000212022216384F83D2078
:100B300084F83E10226C01261043206484F83C1097
:100B4000304601B0BDE8F0830868400504D4FFF7E3
:100B500043FD202004E000BF6FF4806008600420A3
:100B600000212022216384F83D2084F83E10226C6D
:100B70001043206484F83C10206C042825D12068A0
:100B80000126016841F400710160304601B0BDE802
:100B9000F08300BF0868400504D4FFF71DFD202046
:100BA00004E000BF6FF48060086004200021202270
:100BB000216384F83D2084F83E10226C10432064A9
:100BC00084F83C10206C0428D9D00126304601B0AE
:100BD000BDE8F08310B586B045F200410068C4F26C
:100BE000000100228842049202D006B010BD00BF6E
:100BF00041F21804C4F20204206840F008002060AA
:100C0000206800F0080001900198C0200290122096
:100C100003900320059001F5384002A9FFF7C8FBB7
:100C2000606840F400106060606800F4001001909B
:100C3000019806B010BD000040F2000040F21C51C7
:100C4000C2F20000C2F2000100780A681044086095
:100C50007047000080B542F20000C4F20200016853
:100C600041F010010160032000F07AF80F2000F03D
:100C700005F800F027F8002080BD000070B540F2B4
:100C80000006C2F2000640F210013278C2F2000102
:100C90004FF47A730968B3FBF2F20446B1FBF2F148
:100CA000084600F03BFB0F2C4FF0010508D838B97F
:100CB0004FF0FF3021460022002500F025F8746037
:100CC000284670BD82B041F21800C4F202000168EB
:100CD000022241F001010160016801F0010101916E
:100CE0000199416841F080514160406800F08050B6
:100CF000009000980420C4F20100016862F31A61B8
:100D0000016002B07047000010B54EF60C5CCEF2E8
:100D1000000CDCF80030C3F3022E8EF00704042C24
:100D200028BF0424BEF103034FF0FF3E0EFA04F483
:100D300038BF0023A14399400EFA03F39A431143AD
:100D400000F00F0200F160430901043A03F5644327
:100D50006244002848BF02F10C03197010BD000066
:100D60004EF60C51CEF200010A684FF6FF031A400E
:100D700060F30A2242F0806040F0FD700860704726
:100D80002DE9F04381B0002800F0858042F2000890
:100D9000C4F202080446D8F800000D4600F007002F
:100DA00088420CD2D8F8000020F007002843C8F889
:100DB0000000D8F8000000F00700A8426BD12068BE
:100DC00041F204098107C4F2020917D5410705D58C
:100DD000D9F8001041F4E061C9F80010010705D509
:100DE000D9F8001041F46051C9F80010D9F800108A
:100DF000A26821F0F0011143C9F80010C00741D1E9
:100E0000D8F8000000F00700A8420CD9D8F800007C
:100E100020F007002843C8F80000D8F8000000F0D0
:100E20000700A84237D12068410707D5D9F800103C
:100E3000E26821F4E0611143C9F80010000708D509
:100E4000D9F80000216920F4605040EAC100C9F8D7
:100E50000000D9F8002002F00C00082841F2002020
:100E6000C0F27A0050D142F60E03C2F38341C0F6BD
:100E70000003595CD2033BD440F60010C0F23D00A1
:100E8000484341E0606802280AD001282AD159F875
:100E9000041C890308D4012001B0BDE8F08300BF21
:100EA00059F8041C8901F6D5D9F8001021F0030186
:100EB0000843C9F80000FFF78FFB064641F2883768
:100EC000D9F80000616800F00C00B0EB810F97D0FA
:100ED000FFF782FB801BB842F2D9032001B0BDE8C6
:100EE000F08300BF59F8041C8907D4D5DCE700BFA4
:100EF000D9F8002041F69823C2F34042C0F600031F
:100F00009A5C4843B0FBF2F0D9F8001041F69A22FF
:100F1000C1F30311C0F60002515C40F2100220FA46
:100F200001F140F20400C2F200000068C2F20002C7
:100F30001160FFF7A3FE002001B0BDE8F0830000C0
:100F400040F2100041F20401C2F20000C4F20201BA
:100F50000068096841F6AA22C1F30221C0F6000226
:100F6000515CC840704700002DE9F04182B0002874
:100F700068D00446007841F20006C007C4F20206B9
:100F800025D0706800F00C0004281BD0706800F0B9
:100F90000C00082802D17068C00313D460680028D0
:100FA00000F06881B0F5A02F00F07C81B0F5803FA3
:100FB00000F07C81306820F480303060306820F4AC
:100FC000802076E13068800301D56068D0B3207856
:100FD000800718D5706810F00C0F07D0706800F00B
:100FE0000C0008286ED17068C0036BD4306880078D
:100FF00002D52069012825D13068616920F0F80008
:1010000040EAC1003060207800071FD420784007F4
:1010100032D4E56995B1706800F00C00082840F002
:101020008F80012D0ED07068216A00F480328A42D0
:1010300008D1616A00F47010884203D1002002B028
:10104000BDE8F081012002B0BDE8F081A069002870
:1010500062D00020C4F242200121C0F88014FFF7C2
:10106000BBFA0546706A800700F18C80FFF7B4FA7E
:10107000401B0228F6D92AE1F06910F0805808D107
:10108000F06940F08050F061F06900F0805000900D
:10109000009847F20007C4F200073868C00529D459
:1010A000386840F480703860FFF796FA054600BF54
:1010B0003868C0051ED4FFF78FFA401B6428F7D9A3
:1010C00005E100BF2069002840F20000C4F2422080
:1010D00000F0828001210160FFF77EFA054600BF23
:1010E000306880073FF588AFFFF776FA401B02288B
:1010F000F6D9ECE0E068002800F08080052800F0D8
:101100009780012800F09880306A20F0010030625A
:10111000306A20F0040092E00020C4F24220002156
:10112000C0F88014FFF758FA054600BF706A8007C0
:101130007FF56CAFFFF750FA401B0228F6D9C6E0E6
:101140000027C4F2422700203866FFF745FA022D37
:1011500005460BD13068800140F1BE80FFF73CFAB4
:10116000401B02284FF00300F4D968E73068800183
:101170007FF564AFFFF730FA401B02284FF0030001
:10118000F4D95CE740F21000C2F20000006844F6B7
:10119000D351C1F26201A0FB0101480A019000BFD6
:1011A00000BF0198411E002801913FF42FAF00BFFE
:1011B0000198411E002801913FF428AF00BF01981B
:1011C000411E002801913FF421AF00BF0198411E4C
:1011D00000280191E4D119E700210160FFF7FCF933
:1011E000054600BF306880077FF50DAFFFF7F4F9C3
:1011F000401B02284FF00300F4D920E7306A20F0AA
:1012000001003062306A20F004003062FFF7E4F938
:10121000054641F2883700BF306A800720D5FFF7C6
:10122000DBF9401BB8424FF00300F5D907E700BFD8
:10123000306A40F004003062306A40F001003062F1
:10124000FFF7CAF9054641F2883700BF306A8007C8
:1012500006D4FFF7C1F9401BB842F7D937E000BF09
:10126000B8F1000F7FF4D5AEF06920F08050F06146
:10127000CFE600BF306820F480303060306820F462
:1012800080203060FFF7A8F9054600BF3068800372
:101290007FF59DAEFFF7A0F9401B64284FF00300D7
:1012A000F4D9CCE6306840F480203060306840F4F7
:1012B00080303060FFF790F9054600BF306880034A
:1012C0003FF585AEFFF788F9401B6428F6D9032067
:1012D00002B0BDE8F08100BF206AB0F5803F05D1C3
:1012E0007168A26821F40031114371607168626A0B
:1012F00021F4741111430843706001203866FFF730
:101300006BF90446306880013FF598AEFFF764F949
:10131000001B02284FF00300F4D990E6411E002084
:10132000B0EB116F1CBF012070474EF21002CEF2DD
:10133000000251604EF62351CEF20001F0230B70F3
:10134000072190601160704710B590F83C20012A89
:101350004FF0020233D080F83D200268D2F804E05A
:10136000D2F808C00C682EF07003234340F2FF74DB
:10137000C4F20004A24253600ADCB2F1804F13D0E1
:1013800040F20043C4F200039A420DD011E000BFC6
:1013900042F60043C4F201039A4205D040F600032E
:1013A000C4F200039A4204D149682CF08003194327
:1013B00091600121002280F83D1080F83C20104609
:1013C00010BD0000002804BF0120704710B504467E
:1013D00090F83D0028B9002084F83C00204600F039
:1013E00067F8022084F83D00206840F2FF7302682D
:1013F000C4F2000342F6004C9842C4F2010C15DC22
:10140000B0F1804F1AD040F20041C4F2000188428E
:1014100014D0984218DCB0F1804F1DD040F200414A
:10142000C4F20001884217D01AE000BF604505D021
:1014300040F60001C4F200018842EAD1A16822F01E
:1014400070020A439842E6DD604505D040F600018F
:10145000C4F20001884203D1216922F440720A4398
:10146000A36922F08001D4F804E0E26819436045E2
:101470000160C262C0F828E002D16169CCF8301086
:1014800001214161002084F8461084F83E1084F860
:101490003F1084F8401084F8411084F8421084F81A
:1014A000431084F8441084F8451084F83D1010BDB2
:1014B00081B0006842F60041C4F20101884201D0C7
:1014C00001B0704741F21800C4F20200016841F413
:1014D00000610160006800F400600090009801B0B5
:1014E0007047000080B590F83C20012A4FF00202BE
:1014F00000F0BF8080F83D20D0F800C04FF6777232
:10150000DCF8083023EA0202CCF808200B683F2BF5
:101510001CDD5F2B20DD602B50D0B3F5005F6DD05C
:10152000702B40F0A080D1E901E3C968DCF8082005
:1015300043EA0E0322F47F4243EA01211143CCF82F
:101540000810DCF8081041F077018AE01F2B29DC35
:1015500063B3102B2AD086E0402B63D0502B40F091
:101560008280D1F804E0C968DCF82030DCF8202063
:1015700022F00102CCF82020DCF8182022F0F00242
:1015800042EA011123F00A0242EA0E02CCF81810D6
:10159000CCF82020DCF8081041F0570121F02001A0
:1015A0005FE000BF202B01D0302B5CD1DCF80810AD
:1015B00021F07001194341F0070152E0D1F804E035
:1015C000C968DCF8203023F01003CCF82030DCF8B8
:1015D0001830DCF8202023F4704322F0A00243EA04
:1015E000013142EA0E12CCF81810CCF82020DCF8B9
:1015F000081041F0670121F0100132E0D1E901E368
:10160000C968DCF8082043EA0E0322F47F4243EA6B
:1016100001211143CCF80810DCF8081041F4804196
:101620001FE000BFD1F804E0C968DCF82030DCF826
:10163000202022F00102CCF82020DCF8182022F033
:10164000F00242EA011123F00A0242EA0E02CCF84B
:101650001810CCF82020DCF8081041F0470121F0E8
:101660003001CCF808100121002280F83D1080F8EC
:101670003C20104680BD0000FEE70000FEE70000B1
:10168000FEE700007047000080B540F28000C2F223
:1016900000004FF48061FEF7DCFDBDE8804000F003
:1016A000A3B8000040F27802C2F20002508091809C
:1016B000704700002DE9F04F87B040F27803C2F286
:1016C0000003B3F802A00F7807EB0A067F2E05D8B7
:1016D0009E884D7803962E443F2E03D9002007B0F4
:1016E000BDE8F08F002D00905AD020380190187876
:1016F000B2FA82F67309013AB2FA82F2002806932E
:1017000008BF530940F2800904934FF000063B469E
:10171000C2F2000918BF0120059003E00023013642
:10172000AE423DD2002BF9D003988419A2B23F2AD1
:10173000F5D801984A6805FB0060029632F810E07F
:1017400004F00700012282404FF68070C0F20F00C3
:1017500000EA041CD043002404E000BF0F780134E9
:10176000BC4219D20AEB0407BFB27F2FF6D86744F8
:101770000EFA04F319F807B01B04049B0BEA0008E7
:10178000DDE9055658BF86EA0503002B18BF4BEA72
:10179000020809F80780E1E74D78029E3B46BEE764
:1017A000F8B240F278015044C2F2000148805DF87E
:1017B0001C0BBDE8F08F000070B503787BB11446B8
:1017C0000D46461CD8B229462246FFF773FF16F88D
:1017D000011C884206D116F8013B002BF2D10020F3
:1017E00070BD00BF084670BD2DE9F04FC1B00DF1CE
:1017F000040B40F280460BF101094FF000086FF036
:101800007F050A24C2F200064FF0000A40F2800071
:101810008035C2F200002F18AAF150008DF80500A3
:10182000304678215A4602238DF804800094FEF752
:1018300095FF304678215A460223ADF80480009483
:10184000FEF78CFF4FF48050ADF80400304678214D
:101850005A4602230094FEF781FF40208DF80400D1
:10186000484639468022FEF7AFFC304678215A467A
:1018700081230094FEF772FFB5F5607F0AF1010A3B
:10188000C4D141B0BDE8F08F70470000FFF7D4B974
:1018900070470000FEE7000090B0FFF7DBF900247E
:1018A0000120CDE90B44CDE9094406900A904FF49C
:1018B000E0104FF4803102250F9006A8CDE90714FF
:1018C000CDE90D51FFF750FB20B1EFF3108072B658
:1018D000FEE700BF0F20CDE900054FF48060CDE9A1
:1018E0000304684602210294FFF74AFA20B1EFF39D
:1018F000108072B6FEE700BF41F21800C4F2020089
:10190000016841F2000441F0100101600168C4F275
:10191000010401F01001069106990168002241F0CE
:101920002001016001684FF4005601F0200106918A
:1019300006990168002741F004010160016801F087
:10194000040106910699016841F0080101600068F0
:101950004FF4005100F00800069006982046FEF76C
:1019600035FEA4F5806528464FF4007100224FF43F
:101970000078FEF72BFE069606AE4FF001094FF0F9
:10198000020A20463146CDE90797CDF824A0FEF79C
:101990000FFD28463146CDE90689CDE9087AFEF7E4
:1019A00007FD40F28040A4F53C41C2F2000041F640
:1019B00080224FF48043C0F2060280E88600C0E92E
:1019C0000373C0E90577C0E90777FEF70BFE28B17E
:1019D000EFF3108072B600BFFEE700BF40F2D440C4
:1019E00004F5E051C2F200004FF6FF730997CDE90C
:1019F0000777CDE90077472280E88600C0E9033702
:101A0000C0E90577FFF7DEFC20B1EFF3108072B676
:101A1000FEE700BF4FF48050069040F2D440C2F27F
:101A2000000006A9FFF75EFD20B1EFF3108072B64B
:101A3000FEE700BF40F2D440C2F200006946FFF763
:101A400083FC28B1EFF3108072B600BFFEE700BF41
:101A500040F208060DA5C2F2000600BFFFF714FE13
:101A600020464FF400510022FEF7B0FD002028214F
:101A7000FFF718FE284631460122FFF79DFEFFF7CB
:101A8000B3FE4FF47A70FEF77FFCE7E752656164BE
:101A90005772697465000000010200000000000038
:101AA000000001020304060708090000000001020B
:101AB000030400000000000000000000000000001F
:101AC0000000000000000000000000000000000016
:101AD0000000000000000000000C000C000C000CD6
:101AE000000C000C000C000C000C000C000C0000A2
:101AF000000C000C0000000000000000001B001B98
:101B0000001B001B001B0000000000000000000084
:101B100000000000000000000000000000000000C5
:101B20008019801980198019C07FC07F8019003307
:101B3000C07FC07F0033003300330033000000005B
:101B400000000000001E003F807580650074003CAE
:101B5000001E00078005806580658075003F001EBF
:101B60000004000400000000007000D840D8C0D875
:101B700080D900730006000C801BC036C066C046CA
:101B8000C00680030000000000000000001E003FAF
:101B9000003300330033001E000CC03CC06680637D
:101BA00080618063C03E801C0000000000000000D7
:101BB000000C000C000C000C000C000000000000E9
:101BC0000000000000000000000000000000000015
:101BD0000000800000010003000600060004000C65
:101BE000000C000C000C000C000C000400060006A9
:101BF000000300018000002000100018000C000C01
:101C000000040006000600060006000600060004A8
:101C1000000C000C0018001000200000000C002D2B
:101C2000003F001E00330000000000000000000024
:101C300000000000000000000000000000000000A4
:101C400000000000000C000C000C000CC0FFC0FFE6
:101C5000000C000C000C000C000000000000000054
:101C60000000000000000000000000000000000074
:101C7000000000000000000000000000000C000C4C
:101C80000004000400080000000000000000000044
:101C90000000000000000000001E001E0000000008
:101CA0000000000000000000000000000000000034
:101CB0000000000000000000000000000000000024
:101CC00000000000000C000C0000000000000000FC
:101CD0000003000300030006000600060006000CD7
:101CE000000C000C000C0018001800180000000088
:101CF00000000000001E003F0033806180618061B1
:101D0000806D806D8061806180610033003F001EC6
:101D100000000000000000000006000E001E00365B
:101D20000026000600060006000600060006000663
:101D3000000600060000000000000000001E003F3A
:101D4000807380618061800100030006000C001830
:101D500000300060807F807F0000000000000000F5
:101D6000001C003E006300630003000E000E000331
:101D70008001800180618073003F001E0000000030
:101D8000000000000006000E000E001E001E0016DF
:101D9000003600360066807F807F00060006000661
:101DA0000000000000000000007F007F0060006075
:101DB0000060006E007F806380018001806180731D
:101DC000003F001E0000000000000000001E003F59
:101DD000803380610060006E007F8073806180616D
:101DE00080618033003F001E000000000000000002
:101DF000807F807F80010003000300060006000C46
:101E0000000C000C0008001800180018000000006A
:101E100000000000001E003F80638061806100219F
:101E2000001E003F8061806180618061003F001E74
:101E30000000000000000000001E003F00738061F1
:101E4000806180618073803F801D800180610073AC
:101E5000003F001E00000000000000000000000025
:101E600000000000000C000C00000000000000005A
:101E700000000000000C000C00000000000000004A
:101E800000000000000000000000000C000C00003A
:101E90000000000000000000000C000C0004000422
:101EA0000008000000000000000080008003000E19
:101EB000003800600038000E800380000000000041
:101EC0000000000000000000000000000000000012
:101ED000807F807F00000000807F807F0000000006
:101EE00000000000000000000000000000000000F2
:101EF000000000400070001C000780010007001C6B
:101F00000070004000000000000000000000000021
:101F1000001F803FC071C060C000C0018003000787
:101F2000000E000C000C0000000C000C0000000073
:101F300000000000001E003F803180718063806FD0
:101F4000806D806D806F806700600032003E001CF5
:101F50000000000000000000000E000E001B001B2F
:101F6000001B001B80318031803F803F8031C0608A
:101F7000C060C0600000000000000000007C007E27
:101F80000063006300630063007E007E0063806185
:101F900080618063007F007E000000000000000080
:101FA000001E003F803180610060006000600060C2
:101FB0000060006080618031003F001E0000000072
:101FC00000000000007C007F00638063806180610E
:101FD000806180618061806100630063007E007CBD
:101FE0000000000000000000807F807F0060006033
:101FF00000600060007F007F0060006000600060A3
:10200000807F807F0000000000000000807F807FD4
:102010000060006000600060007F007F0060006082
:102020000060006000600060000000000000000030
:10203000001E003F803180610060006000608063AE
:102040008063806180618031803F001E000000005D
:10205000000000008061806180618061806180613A
:10206000807F807F8061806180618061806180612C
:102070000000000000000000003F003F000C000CCA
:10208000000C000C000C000C000C000C000C000CF0
:10209000003F003F000000000000000080018001C0
:1020A00080018001800180018001800180018061C8
:1020B00080618073003F001E0000000000000000EF
:1020C000C0608061006300660066006C0078007C80
:1020D00000660066006380618061C06000000000EF
:1020E00000000000006000600060006000600060B0
:1020F000006000600060006000600060807F807FA2
:102100000000000000000000C071C071C07BC07AF8
:10211000C06AC06AC06EC064C060C060C060C06099
:10212000C060C0600000000000000000807180718D
:10213000807980798079806D806D806D8065806721
:1021400080678067806380630000000000000000FB
:10215000001E003F0033806180618061806180618A
:102160008061806180610033003F001E000000003C
:1021700000000000007E007F8063806180618061DC
:102180008063007F007E006000600060006000608F
:102190000000000000000000001E003F00338061CE
:1021A00080618061806180618061806580670033CB
:1021B000803F401E0000000000000000007E007F05
:1021C0008063806180618063007F007E00660063C1
:1021D000006380618061C0600000000000000000BA
:1021E000000E001F8031803100300038001E0007D3
:1021F0008003806180618031003F001E000000008C
:1022000000000000C0FFC0FF000C000C000C000C20
:10221000000C000C000C000C000C000C000C000C5E
:10222000000000000000000080618061806180612A
:102230008061806180618061806180618061807384
:10224000003F001E0000000000000000C060C060F1
:10225000C060803180318031001B001B001B001BDF
:10226000000E000E000E0004000000000000000040
:10227000C0C0C0C0C0C0C0C0C0C0C0CC804C804CBA
:10228000805E805280528073806180610000000017
:1022900000000000C0C0806080610033003B001E71
:1022A000000C000C001E001F003B80718061C0C04C
:1022B0000000000000000000C0C0806180610033A9
:1022C0000033001E001E000C000C000C000C000C63
:1022D000000C000C0000000000000000803F803F68
:1022E0008001000300030006000C000C0018001819
:1022F00000300060807F807F000000000000000F41
:10230000000F000C000C000C000C000C000C000C6A
:10231000000C000C000C000C000C000C000C000F5A
:10232000000F0000001800180018000C000C000C32
:10233000000C000600060006000600030003000370
:10234000000000000000001E001E0006000600063F
:10235000000600060006000600060006000600064D
:10236000000600060006001E001E0000000C000C07
:10237000001E001200330033806180610000000005
:10238000000000000000000000000000000000004D
:10239000000000000000000000000000000000003D
:1023A0000000000000000000000000000000E0FF4E
:1023B0000000000000380018000C000000000000C1
:1023C000000000000000000000000000000000000D
:1023D00000000000000000000000000000000000FD
:1023E000001F803F80618001801F803F806180638B
:1023F000807FC03800000000000000000060006026
:1024000000600060006E007F807380618061806189
:1024100080618073007F006E0000000000000000FB
:102420000000000000000000001E003F807380617B
:102430000060006080618073003F001E00000000AB
:10244000000000008001800180018001801D803F2C
:10245000807380618061806180618073803F801DB6
:10246000000000000000000000000000000000006C
:10247000001E003F00738061807F807F006080715C
:10248000003F001E0000000000000000C007C00F59
:10249000000C000C807F807F000C000C000C000CF6
:1024A000000C000C000C000C0000000000000000FC
:1024B000000000000000801D803F8073806180610B
:1024C000806180618073803F801D80018063007F18
:1024D000003E00000060006000600060006F807FD0
:1024E00080718061806180618061806180618061D4
:1024F00000000000000000000006000600000000D0
:10250000003E003E0006000600060006000600062B
:1025100000060006000000000000000600060000A3
:102520000000003E003E0006000600060006000611
:1025300000060006000600060046007E003C000083
:102540000060006000600060806100630066006CF5
:10255000007C0076006300638061C06000000000C2
:1025600000000000003E003E0006000600060006D7
:10257000000600060006000600060006000600062B
:10258000000000000000000000000000000000004B
:1025900080DDC0FFC0CEC0CCC0CCC0CCC0CCC0CCD5
:1025A000C0CCC0CC00000000000000000000000013
:1025B00000000000006F807F807180618061806119
:1025C0008061806180618061000000000000000087
:1025D0000000000000000000001E003F80738061CA
:1025E0008061806180618073003F001E00000000F8
:1025F00000000000000000000000006E007F8073FB
:1026000080618061806180618073007F006E006006
:102610000060006000600000000000000000801DFD
:10262000803F807380618061806180618073803FC2
:10263000801D8001800180018001000000000000F9
:10264000000000000067803F00390030003000309B
:1026500000300030003000300000000000000000BA
:102660000000000000000000001E803F806100604C
:10267000007F803F80018061007F001E000000001D
:10268000000000000000000800180018007F007F14
:10269000001800180018001800180018801F800F7C
:1026A000000000000000000000000000000000002A
:1026B0008061806180618061806180618061806310
:1026C000807F803D0000000000000000000000004E
:1026D00000000000C060803180318031001B001B91
:1026E000001B000E000E00060000000000000000AD
:1026F000000000000000000080DD80DD80DD00556E
:1027000000550055007700770022002200000000ED
:1027100000000000000000000000000080610033A5
:102720000033001E000C000C001E003300338061DB
:1027300000000000000000000000000000008061B8
:102740008061803100330033001B001B001B000E32
:10275000000E000E001C007C007000000000000055
:1027600000000000C07FC07F800100030006000C55
:1027700000180030C07FC07F000000000000800310
:10278000800700060006000600060006000E001C7A
:10279000001C000E0006000600060006000680076A
:1027A000800300060006000600060006000600067C
:1027B00000060006000600060006000600060006E9
:1027C0000006000600060038003C000C000C000C5F
:1027D000000C000C000E00070007000E000C000C9F
:1027E000000C000C000C003C003800000000000051
:1027F00000000000000000008038807F00470000DB
:1028000000000000000000000000000000000203C3
:102810000405060708090A0B0C0D0E0F1010000026
:1028200040280008000000201800000028010008CF
:102830005828000818000020080B00004401000878
:1028400001000000100000000B120000B21A000886
:082850000024F4000000000068
:04000005080000ED02
:00000001FF
